{"abi":[{"type":"constructor","inputs":[{"name":"_cbtoken","type":"address","internalType":"address"},{"name":"_platformVault","type":"address","internalType":"address"}],"stateMutability":"nonpayable"},{"type":"function","name":"addProduct","inputs":[{"name":"_ruc","type":"string","internalType":"string"},{"name":"_name","type":"string","internalType":"string"},{"name":"_photos","type":"string[4]","internalType":"string[4]"},{"name":"_price_1","type":"uint256","internalType":"uint256"},{"name":"_stock","type":"uint256","internalType":"uint256"},{"name":"_iva","type":"uint8","internalType":"uint8"}],"outputs":[],"stateMutability":"nonpayable"},{"type":"function","name":"addToCart","inputs":[{"name":"_productId","type":"uint256","internalType":"uint256"},{"name":"_quantity","type":"uint256","internalType":"uint256"}],"outputs":[],"stateMutability":"nonpayable"},{"type":"function","name":"buyStock","inputs":[{"name":"_productId","type":"uint256","internalType":"uint256"},{"name":"_amount","type":"uint256","internalType":"uint256"}],"outputs":[],"stateMutability":"nonpayable"},{"type":"function","name":"cbtoken","inputs":[],"outputs":[{"name":"","type":"address","internalType":"contract IERC20"}],"stateMutability":"view"},{"type":"function","name":"checkout","inputs":[],"outputs":[],"stateMutability":"nonpayable"},{"type":"function","name":"clearCart","inputs":[],"outputs":[],"stateMutability":"nonpayable"},{"type":"function","name":"clients","inputs":[{"name":"","type":"address","internalType":"address"}],"outputs":[{"name":"name","type":"string","internalType":"string"},{"name":"idNumber","type":"string","internalType":"string"},{"name":"wallet","type":"address","internalType":"address"},{"name":"email","type":"string","internalType":"string"},{"name":"phone","type":"string","internalType":"string"},{"name":"streets","type":"string","internalType":"string"}],"stateMutability":"view"},{"type":"function","name":"companies","inputs":[{"name":"","type":"string","internalType":"string"}],"outputs":[{"name":"name","type":"string","internalType":"string"},{"name":"ruc","type":"string","internalType":"string"},{"name":"wallet","type":"address","internalType":"address"},{"name":"isActive","type":"bool","internalType":"bool"},{"name":"streets","type":"string","internalType":"string"},{"name":"phone","type":"string","internalType":"string"},{"name":"description","type":"string","internalType":"string"},{"name":"email","type":"string","internalType":"string"},{"name":"logoUrl","type":"string","internalType":"string"},{"name":"establishmentCode","type":"string","internalType":"string"},{"name":"emissionPointCode","type":"string","internalType":"string"},{"name":"nextInvoiceNumber","type":"uint256","internalType":"uint256"},{"name":"currentWeekSales","type":"uint256","internalType":"uint256"},{"name":"lastResetTimestamp","type":"uint256","internalType":"uint256"},{"name":"vipUntil","type":"uint256","internalType":"uint256"},{"name":"lastWeekStatus","type":"uint8","internalType":"uint8"}],"stateMutability":"view"},{"type":"function","name":"getCartItems","inputs":[],"outputs":[{"name":"","type":"tuple[]","internalType":"struct CartLib.CartItem[]","components":[{"name":"productId","type":"uint256","internalType":"uint256"},{"name":"quantity","type":"uint256","internalType":"uint256"}]}],"stateMutability":"view"},{"type":"function","name":"getInvoice","inputs":[{"name":"key","type":"string","internalType":"string"}],"outputs":[{"name":"","type":"tuple","internalType":"struct InvoiceLib.Invoice","components":[{"name":"invoiceId","type":"string","internalType":"string"},{"name":"companyRuc","type":"string","internalType":"string"},{"name":"customerWallet","type":"address","internalType":"address"},{"name":"timestamp","type":"uint256","internalType":"uint256"},{"name":"txHash","type":"bytes32","internalType":"bytes32"},{"name":"subtotal0","type":"uint256","internalType":"uint256"},{"name":"subtotal15","type":"uint256","internalType":"uint256"},{"name":"ivaAmount","type":"uint256","internalType":"uint256"},{"name":"totalAmount","type":"uint256","internalType":"uint256"},{"name":"details","type":"tuple[]","internalType":"struct InvoiceLib.InvoiceItem[]","components":[{"name":"productId","type":"uint256","internalType":"uint256"},{"name":"description","type":"string","internalType":"string"},{"name":"quantity","type":"uint256","internalType":"uint256"},{"name":"unitPrice","type":"uint256","internalType":"uint256"},{"name":"ivaPercentage","type":"uint8","internalType":"uint8"},{"name":"totalItem","type":"uint256","internalType":"uint256"}]}]}],"stateMutability":"view"},{"type":"function","name":"getProductPhotos","inputs":[{"name":"_id","type":"uint256","internalType":"uint256"}],"outputs":[{"name":"","type":"string[4]","internalType":"string[4]"}],"stateMutability":"view"},{"type":"function","name":"nextProductId","inputs":[],"outputs":[{"name":"","type":"uint256","internalType":"uint256"}],"stateMutability":"view"},{"type":"function","name":"owner","inputs":[],"outputs":[{"name":"","type":"address","internalType":"address"}],"stateMutability":"view"},{"type":"function","name":"payVipSubscription","inputs":[{"name":"_ruc","type":"string","internalType":"string"}],"outputs":[],"stateMutability":"nonpayable"},{"type":"function","name":"platformVault","inputs":[],"outputs":[{"name":"","type":"address","internalType":"address"}],"stateMutability":"view"},{"type":"function","name":"products","inputs":[{"name":"","type":"uint256","internalType":"uint256"}],"outputs":[{"name":"name","type":"string","internalType":"string"},{"name":"price_1","type":"uint256","internalType":"uint256"},{"name":"price_2","type":"uint256","internalType":"uint256"},{"name":"price_3","type":"uint256","internalType":"uint256"},{"name":"stock","type":"uint256","internalType":"uint256"},{"name":"companyRuc","type":"string","internalType":"string"},{"name":"isActive","type":"bool","internalType":"bool"},{"name":"iva","type":"uint8","internalType":"uint8"}],"stateMutability":"view"},{"type":"function","name":"registerClient","inputs":[{"name":"_name","type":"string","internalType":"string"},{"name":"_idNumber","type":"string","internalType":"string"},{"name":"_email","type":"string","internalType":"string"},{"name":"_phone","type":"string","internalType":"string"},{"name":"_streets","type":"string","internalType":"string"}],"outputs":[],"stateMutability":"nonpayable"},{"type":"function","name":"registerCompany","inputs":[{"name":"_ruc","type":"string","internalType":"string"},{"name":"_name","type":"string","internalType":"string"},{"name":"_wallet","type":"address","internalType":"address"},{"name":"_streets","type":"string","internalType":"string"},{"name":"_phone","type":"string","internalType":"string"},{"name":"_description","type":"string","internalType":"string"},{"name":"_email","type":"string","internalType":"string"},{"name":"_logoUrl","type":"string","internalType":"string"}],"outputs":[],"stateMutability":"nonpayable"},{"type":"function","name":"removeFromCart","inputs":[{"name":"_productId","type":"uint256","internalType":"uint256"},{"name":"_quantity","type":"uint256","internalType":"uint256"}],"outputs":[],"stateMutability":"nonpayable"},{"type":"function","name":"updateCompanyWallet","inputs":[{"name":"_ruc","type":"string","internalType":"string"},{"name":"_newWallet","type":"address","internalType":"address"}],"outputs":[],"stateMutability":"nonpayable"},{"type":"function","name":"updateProduct","inputs":[{"name":"_id","type":"uint256","internalType":"uint256"},{"name":"_name","type":"string","internalType":"string"},{"name":"_photos","type":"string[4]","internalType":"string[4]"},{"name":"_price_1","type":"uint256","internalType":"uint256"},{"name":"_iva","type":"uint8","internalType":"uint8"},{"name":"_isActive","type":"bool","internalType":"bool"}],"outputs":[],"stateMutability":"nonpayable"},{"type":"function","name":"walletToRuc","inputs":[{"name":"","type":"address","internalType":"address"}],"outputs":[{"name":"","type":"string","internalType":"string"}],"stateMutability":"view"},{"type":"event","name":"CompanyRegistered","inputs":[{"name":"ruc","type":"string","indexed":false,"internalType":"string"},{"name":"name","type":"string","indexed":false,"internalType":"string"},{"name":"wallet","type":"address","indexed":false,"internalType":"address"}],"anonymous":false},{"type":"event","name":"ProductAdded","inputs":[{"name":"id","type":"uint256","indexed":false,"internalType":"uint256"},{"name":"name","type":"string","indexed":false,"internalType":"string"},{"name":"companyRuc","type":"string","indexed":false,"internalType":"string"}],"anonymous":false},{"type":"event","name":"PurchaseCompleted","inputs":[{"name":"buyer","type":"address","indexed":true,"internalType":"address"},{"name":"companyRuc","type":"string","indexed":true,"internalType":"string"},{"name":"invoiceId","type":"string","indexed":false,"internalType":"string"},{"name":"total","type":"uint256","indexed":false,"internalType":"uint256"}],"anonymous":false},{"type":"event","name":"StockUpdated","inputs":[{"name":"productId","type":"uint256","indexed":false,"internalType":"uint256"},{"name":"newStock","type":"uint256","indexed":false,"internalType":"uint256"}],"anonymous":false},{"type":"event","name":"VipStatusPaid","inputs":[{"name":"ruc","type":"string","indexed":false,"internalType":"string"},{"name":"until","type":"uint256","indexed":false,"internalType":"uint256"}],"anonymous":false}],"bytecode":{"object":"0x60a0346100ae57601f6139af38819003918201601f19168301916001600160401b038311848410176100b25780849260409485528339810103126100ae57610052602061004b836100c6565b92016100c6565b600160058190555f80546001600160a01b031990811633179091556001600160a01b03938416608052815416929091169190911790556040516138d490816100db82396080518181816113d601528181611fff0152612da40152f35b5f80fd5b634e487b7160e01b5f52604160045260245ffd5b51906001600160a01b03821682036100ae5756fe60a06040526004361015610011575f80fd5b5f3560e01c806305e410dd1461315457806306099d691461276957806320f094f81461274157806325964add146123c95780633ab9bbb6146122935780634de91a6314612276578063574fde971461221357806361eed2a91461210957806362c94c7814611f905780637a3d027714611d395780637acc0b2014611c7257806383eac6dc146119d45780638da5cb5b146119ad57806393db3d38146114ec578063aaa11c4f14611405578063b613972a146113c1578063b9303dbd14611248578063b9d29998146109dd578063bb5aea4914610490578063ea06490414610436578063f6ec855a146104115763f906a4401461010b575f80fd5b3461040d57602036600319011261040d576004356001600160401b03811161040d57602061013e81923690600401613293565b606061012060405161014f81613256565b82815282858201525f60408201525f838201525f60808201525f60a08201525f60c08201525f60e08201525f6101008201520152604051928184925191829101835e81016008815203019020604051906101a882613256565b6040516101c0816101b981856133b1565b0382613272565b8252604051916101de836101d781600186016133b1565b0384613272565b6020810192835260018060a01b036002830154169160408201928352600381015460608301908152600482015460808401908152600583015460a0850190815260068401549160c0860192835260078501549360e0870194855260096008870154966101008901978852019889549761025689613456565b986102646040519a8b613272565b808a5260208a019b5f5260205f209b5f905b8282106103a4575061014060208d8d8d8d8d8d8d8d6102c98e6102b68f61012081019a8b526040519d8d8f9e928f938452519201526101608d0190613432565b90518b8203601f190160408d0152613432565b97516001600160a01b031660608a01525160808901525160a08801525160c08701525160e0860152516101008501525161012084015251828203601f190161014084015280518083526020600582901b8401810193928101925f918101905b8383106103355786860387f35b919395509193602080600192601f198582030186528851908151815260a08061036b8585015160c08786015260c0850190613432565b93604081015160408501526060810151606085015260ff6080820151166080850152015191015297019301930190928695949293610328565b600660208f926001936005604051916103bc8361323b565b805483526040516103d3816101b9818b86016133b1565b85840152600281015460408401526003810154606084015260ff6004820154166080840152015460a08201528152019e019101909c610276565b5f80fd5b3461040d576104346104223661334d565b90335f52600760205260405f20613777565b005b3461040d57602036600319011261040d576001600160a01b03610457613363565b165f52600360205261048c6101b961047860405f20604051928380926133b1565b604051918291602083526020830190613432565b0390f35b3461040d5760c036600319011261040d576004356001600160401b03811161040d576104c0903690600401613293565b6024356001600160401b03811161040d576104df903690600401613293565b6044356001600160401b03811161040d576104fe9036906004016132e8565b6064359060a43560ff811680910361040d575f546001600160a01b0316331480156109aa575b1561094e576005549261053684613565565b600555605f810290801591818104605f1483171561093a576055820292828404605514171561093a576040519261012084018481106001600160401b038211176107e3576040528784526020840195865260408401928352606460608501920482526064608085019104815260a0840191608435835260c08501938a855260e0860197600189526101008701978852895f52600460205260405f2096518051906001600160401b0382116107e3576105f8826105f28b54613379565b8b6134d3565b602090601f83116001146108d75761062792915f91836108cc575b50508160011b915f199060031b1c19161790565b87555b5160018701905f905b600482106107f7575050505160058601555160068501555160078401555160088301556009820190518051906001600160401b0382116107e3576106818261067b8554613379565b856134d3565b602090601f831160011461074d57600a6107139561073d98956106e38660ff977fb0b1b5b61bc0dbb800dfdecd756ac304fe33d3a63c2ac5dc419452555c99a8299f9b976106fd975f926107425750508160011b915f199060031b1c19161790565b90555b0193511515849060ff801983541691151516179055565b51825461ff001916911660081b61ff0016179055565b61072f6040519485948552606060208601526060850190613432565b908382036040850152613432565b0390a1005b015190505f80610613565b90601f19831691845f52815f20925f5b8181106107cb57509561073d98956001867fb0b1b5b61bc0dbb800dfdecd756ac304fe33d3a63c2ac5dc419452555c99a8299e9a966106fd96600a9660ff9a6107139d106107b3575b505050811b0190556106e6565b01515f1960f88460031b161c191690558f80806107a6565b9293602060018192878601518155019501930161075d565b634e487b7160e01b5f52604160045260245ffd5b80518051906001600160401b0382116107e35761081e826108188754613379565b876134d3565b602090601f83116001146108635792610854836001959460209487965f926107425750508160011b915f199060031b1c19161790565b86555b01930191019091610633565b90601f19831691865f52815f20925f5b8181106108b4575093602093600196938796938388951061089c575b505050811b018655610857565b01515f1960f88460031b161c191690555f808061088f565b92936020600181928786015181550195019301610873565b015190508f80610613565b90601f198316918a5f52815f20925f5b818110610922575090846001959493921061090a575b505050811b01875561062a565b01515f1960f88460031b161c191690558e80806108fd565b929360206001819287860151815501950193016108e7565b634e487b7160e01b5f52601160045260245ffd5b60405162461bcd60e51b815260206004820152602e60248201527f4e6f207469656e6573207065726d69736f7320706172612067657374696f6e6160448201526d72206573746120656d707265736160901b6064820152608490fd5b50335f5260036020526101b96109c960405f20604051928380926133b1565b602081519101208551602087012014610524565b3461040d5761010036600319011261040d576004356001600160401b03811161040d57610a0e903690600401613293565b6024356001600160401b03811161040d57610a2d903690600401613293565b6044356001600160a01b038116919082900361040d576064356001600160401b03811161040d57610a62903690600401613293565b6084356001600160401b03811161040d57610a81903690600401613293565b60a4356001600160401b03811161040d57610aa0903690600401613293565b60c4356001600160401b03811161040d57610abf903690600401613293565b9060e4356001600160401b03811161040d57610adf903690600401613293565b92610af460018060a01b035f541633146135d0565b87610b1b60016040516020818186519601958087835e810160028152030190200154613379565b61120f57602060405180928b518091835e81016002815203019020946001860189516001600160401b0381116107e357610b5f81610b598454613379565b846134d3565b6020601f82116001146111ab579080610b8c925f916111a0575b508160011b915f199060031b1c19161790565b90555b86516001600160401b0381116107e357610bb381610bad8954613379565b896134d3565b6020601f821160011461113e579080610bdf925f9161113357508160011b915f199060031b1c19161790565b86555b60028601805460ff60a01b198a166001600160a81b031990911617600160a01b179055805160038701916001600160401b0382116107e357610c288261067b8554613379565b602090601f83116001146110d057610c5692915f91836110c55750508160011b915f199060031b1c19161790565b90555b805160048601916001600160401b0382116107e357610c7c8261067b8554613379565b602090601f831160011461106257610caa92915f91836110575750508160011b915f199060031b1c19161790565b90555b805160058501916001600160401b0382116107e357610cd08261067b8554613379565b602090601f8311600114610ff457610cfe92915f9183610fe95750508160011b915f199060031b1c19161790565b90555b805160068401916001600160401b0382116107e357610d248261067b8554613379565b602090601f8311600114610f8657610d5292915f9183610f7b5750508160011b915f199060031b1c19161790565b90555b805160078301916001600160401b0382116107e357610d788261067b8554613379565b602090601f8311600114610f1857610da692915f9183610f0d5750508160011b915f199060031b1c19161790565b90555b60088101610dc0610dba8254613379565b826134a1565b60066230303160e81b0180915560098201610dde610dba8254613379565b556001600a820155600c42910155815f52600360205260405f2083516001600160401b0381116107e357610e1681610b598454613379565b6020601f8211600114610e955792610e719492610e5a83610e7f945f51602061387f5f395f51905f5299975f91610e8a57508160011b915f199060031b1c19161790565b90555b604051948594606086526060860190613432565b908482036020860152613432565b9060408301520390a1005b90508701518a610b79565b601f19821690835f52805f20915f5b818110610ef55750835f51602061387f5f395f51905f52989693610e71989693610e7f9660019410610edd575b5050811b019055610e5d565b8801515f1960f88460031b161c191690558980610ed1565b9192602060018192868c015181550194019201610ea4565b015190508880610613565b90601f19831691845f52815f20925f5b818110610f635750908460019594939210610f4b575b505050811b019055610da9565b01515f1960f88460031b161c19169055878080610f3e565b92936020600181928786015181550195019301610f28565b015190508980610613565b90601f19831691845f52815f20925f5b818110610fd15750908460019594939210610fb9575b505050811b019055610d55565b01515f1960f88460031b161c19169055888080610fac565b92936020600181928786015181550195019301610f96565b015190508a80610613565b90601f19831691845f52815f20925f5b81811061103f5750908460019594939210611027575b505050811b019055610d01565b01515f1960f88460031b161c1916905589808061101a565b92936020600181928786015181550195019301611004565b015190508b80610613565b90601f19831691845f52815f20925f5b8181106110ad5750908460019594939210611095575b505050811b019055610cad565b01515f1960f88460031b161c191690558a8080611088565b92936020600181928786015181550195019301611072565b015190508c80610613565b90601f19831691845f52815f20925f5b81811061111b5750908460019594939210611103575b505050811b019055610c59565b01515f1960f88460031b161c191690558b80806110f6565b929360206001819287860151815501950193016110e0565b90508901518c610b79565b601f19821690885f52805f20915f5b8b8282106111885750509083600194939210611170575b5050811b018655610be2565b8a01515f1960f88460031b161c191690558b80611164565b6001849560209395849301518155019401920161114d565b90508c01518d610b79565b5f8381528181209190601f198416908e5b8282106111f657505090836001949392106111de575b5050811b019055610b8f565b8d01515f1960f88460031b161c191690558c806111d2565b600184956020939584930151815501940192018e6111bc565b60405162461bcd60e51b8152602060048201526011602482015270525543207961207265676973747261646f60781b6044820152606490fd5b3461040d576112563661334d565b90805f52600460205260405f209060ff600a830154161561138857604051611285816101b981600987016133b1565b5f546001600160a01b03163314908115611373575b811561133d575b50156112ea577febcfd4ce21b6aefd071d3e0f4bfa57e491b5308a1ffb5a3a8e4805e23f00b8d7926112da600860409401918254613520565b80915582519182526020820152a1005b60405162461bcd60e51b815260206004820152602560248201527f4e6f207469656e6573207065726d69736f732070617261207265706f6e65722060448201526473746f636b60d81b6064820152608490fd5b9050335f5260036020526101b961135d60405f20604051928380926133b1565b60208151910120906020815191012014846112a1565b6001546001600160a01b03163314915061129a565b60405162461bcd60e51b815260206004820152601160248201527050726f647563746f20696e61637469766f60781b6044820152606490fd5b3461040d575f36600319011261040d576040517f00000000000000000000000000000000000000000000000000000000000000006001600160a01b03168152602090f35b3461040d57602036600319011261040d5760405160806114258183613272565b5f5b8181106114de576004355f526004602052600160405f200160405190608082018281106001600160401b038211176107e3576040525f825b600482106114b957836040518091602082016020835260a0830191905f5b6004811061148c575050500390f35b919350916020806114a9600193601f198982030187528751613432565b950193019101908493929161147d565b6001602081926040516114d0816101b9818a6133b1565b81520193019101909161145f565b606083820152602001611427565b3461040d5760a036600319011261040d576004356001600160401b03811161040d5761151c903690600401613293565b6024356001600160401b03811161040d5761153b903690600401613293565b6044356001600160401b03811161040d5761155a903690600401613293565b916064356001600160401b03811161040d5761157a903690600401613293565b926084356001600160401b03811161040d5761159a903690600401613293565b92604051926115a88461323b565b8352602083019081526040830190338252606084019283526080840195865260a08401948552335f52600660205260405f2093518051906001600160401b0382116107e357611601826115fb8854613379565b886134d3565b602090601f831160011461194a5761162f92915f9183610f7b5750508160011b915f199060031b1c19161790565b84555b51805160018501916001600160401b0382116107e3576116568261067b8554613379565b602090601f83116001146118e75761168492915f9183610f7b5750508160011b915f199060031b1c19161790565b90555b516002830180546001600160a01b0319166001600160a01b039290921691909117905551805160038301916001600160401b0382116107e3576116ce8261067b8554613379565b602090601f8311600114611884576116fc92915f91836118145750508160011b915f199060031b1c19161790565b90555b6004810192519283516001600160401b0381116107e35761172481610b598454613379565b6020601f821160011461181f57908061175592600596975f926118145750508160011b915f199060031b1c19161790565b90555b0190519081516001600160401b0381116107e35761177a81610b598454613379565b602092601f82116001146117b8576117a9929382915f926117ad5750508160011b915f199060031b1c19161790565b9055005b015190508480610613565b601f19821693835f52805f20915f5b8681106117fc57508360019596106117e4575b505050811b019055005b01515f1960f88460031b161c191690558380806117da565b919260206001819286850151815501940192016117c7565b015190508780610613565b601f19821695835f52815f20965f5b81811061186c5750916005969791846001959410611854575b505050811b019055611758565b01515f1960f88460031b161c19169055868080611847565b8383015189556001909801976020938401930161182e565b90601f19831691845f52815f20925f5b8181106118cf57509084600195949392106118b7575b505050811b0190556116ff565b01515f1960f88460031b161c191690558680806118aa565b92936020600181928786015181550195019301611894565b90601f19831691845f52815f20925f5b818110611932575090846001959493921061191a575b505050811b019055611687565b01515f1960f88460031b161c1916905588808061190d565b929360206001819287860151815501950193016118f7565b90601f19831691875f52815f20925f5b818110611995575090846001959493921061197d575b505050811b018455611632565b01515f1960f88460031b161c19169055888080611970565b9293602060018192878601518155019501930161195a565b3461040d575f36600319011261040d575f546040516001600160a01b039091168152602090f35b3461040d57604036600319011261040d576004356001600160401b03811161040d57611a04903690600401613293565b6024356001600160a01b0381169081900361040d57611a2d60018060a01b035f541633146135d0565b604051611a546001845192602081818801958087835e810160028152030190200154613379565b15611c3557604051600284518084845e820181815282900360200190912001546001600160a01b031680611bcf575b50600260405160208186518086835e8101848152030190200180546001600160a01b031916831790555f82815260036020526040902083516001600160401b0381116107e357611ad781610b598454613379565b6020601f8211600114611b575792611b499492611b1b83610e7f945f51602061387f5f395f51905f5299975f91610e8a57508160011b915f199060031b1c19161790565b90555b6020604051809286518091835e81016002815203019020604051948594606086526060860190613432565b9084820360208601526133b1565b601f19821690835f52805f20915f5b818110611bb75750835f51602061387f5f395f51905f52989693611b49989693610e7f9660019410611b9f575b5050811b019055611b1e565b8801515f1960f88460031b161c191690558980611b93565b9192602060018192868c015181550194019201611b66565b5f52600360205260405f20611be48154613379565b9081611bf1575b50611a83565b81601f5f9311600114611c085750555b8380611beb565b81835260208320611c2591601f0160051c84190190600101613486565b8082528160208120915555611c01565b60405162461bcd60e51b8152602060048201526015602482015274456d7072657361206e6f207265676973747261646160581b6044820152606490fd5b3461040d57602036600319011261040d576004355f526004602052611cff60405f2060405190611cad82611ca681846133b1565b0383613272565b60ff611d2160058301546006840154936007810154600882015490600a60405193611ce685611cdf81600985016133b1565b0386613272565b015496604051998a996101008b526101008b0190613432565b9460208a015260408901526060880152608087015285820360a0870152613432565b91818116151560c085015260081c1660e08301520390f35b3461040d57602036600319011261040d576004356001600160401b03811161040d57611d69903690600401613293565b604051818192516020819201835e8101600281520360200190206040519081611d9281836133b1565b03611d9d9083613272565b6040519081611daf81600184016133b1565b03611dba9083613272565b60028101546040519182611dd181600384016133b1565b03611ddc9084613272565b6040519283611dee81600485016133b1565b03611df99085613272565b6040519384611e0b81600586016133b1565b03611e169086613272565b60405180611e2781600687016133b1565b03611e329082613272565b60405180611e4381600788016133b1565b03611e4e9082613272565b6040519081611e6081600889016133b1565b03611e6b9083613272565b6040519283611e7d8160098a016133b1565b03611e889085613272565b600a87015498600b88015495600c89015497600d8a015499600e015460ff169a6040519e8f9e8f9161020083526102008301611ec391613432565b8281036020840152611ed491613432565b91600160a01b600190038116604083015260a01c60ff16151590606001528d8082039060800152611f0491613432565b8c810360a08e0152611f1591613432565b8b810360c08d0152611f2691613432565b8a810360e08c0152611f3791613432565b8981036101008b0152611f4991613432565b8881036101208a0152611f5b91613432565b878103610140890152611f6d91613432565b946101608701526101808601526101a08501526101c08401526101e08301520390f35b3461040d57602036600319011261040d576004356001600160401b03811161040d57611fc0903690600401613293565b6001546040516323b872dd60e01b81523360048201526001600160a01b039182166024820152631dcd6500604482015290602090829060649082905f907f0000000000000000000000000000000000000000000000000000000000000000165af180156120fe576120d1575b506201518042046003810180821161093a57600790066006036006811161093a5761205691613520565b6001810180911161093a576201518081029080820462015180149015171561093a575f19810190811161093a577f0b04bd09f84b94bc2cb320a6cfc05fd4e232db27d43fefaf033d3403217e48159181600d604051602081855180838801835e81016002815203019020015561073d60405192839283613573565b6120f29060203d6020116120f7575b6120ea8183613272565b81019061354d565b61202c565b503d6120e0565b6040513d5f823e3d90fd5b3461040d57602036600319011261040d576001600160a01b0361212a613363565b165f5260066020526121d660405f2061048c60056122056040519361215385611cdf81846133b1565b6121f760405161216a816101b981600187016133b1565b60028301546040516001600160a01b03909116916121e490612193836101d78160038a016133b1565b6121c2604051966121b2886121ab81600485016133b1565b0389613272565b6121ab604051809b8193016133b1565b6040519a8b9a60c08c5260c08c0190613432565b908a820360208c0152613432565b9160408901528782036060890152613432565b908582036080870152613432565b9083820360a0850152613432565b3461040d575f36600319011261040d57335f52600760205260405f208054905f81558161223c57005b600182901b916001600160ff1b0381160361093a575f5260205f20905f5b81811061226357005b5f8382018181556001015560020161225a565b3461040d575f36600319011261040d576020600554604051908152f35b3461040d576122a13661334d565b815f52600460205260ff600a60405f200154161561238b57815f5260046020526122d481600860405f200154101561358f565b815f5260046020526101b96122f5600960405f2001604051928380926133b1565b60208151910120335f5260036020526101b961231a60405f20604051928380926133b1565b602081519101201461233b5761043491335f52600760205260405f206136d4565b60405162461bcd60e51b815260206004820152602260248201527f5352492d4552524f523a204175746f636f6d707261206e6f207065726d697469604482015261646160f01b6064820152608490fd5b60405162461bcd60e51b815260206004820152601660248201527550726f647563746f206e6f20646973706f6e69626c6560501b6044820152606490fd5b3461040d5760c036600319011261040d576024356001600160401b03811161040d576123f9903690600401613293565b6044356001600160401b03811161040d576124189036906004016132e8565b6084359160643560ff8416840361040d5760a435801515810361040d576004355f52600460205260405f2094600586019384541561270757335f5260036020526101b961246e60405f20604051928380926133b1565b60208151910120604051612489816101b98160098d016133b1565b60208151910120149460018060a01b035f541633148015612700575b156126bb5781516001600160401b0381116107e35785926124d0826124ca8c54613379565b8c6134d3565b602090601f8311600114612653576124fe92915f91836110575750508160011b915f199060031b1c19161790565b88555b55605f8302831590848104605f1482171561093a5760649004600688015560558402938404605514171561093a57606461256b9304600787015561255a600a870191829061ff0082549160081b169061ff001916179055565b9060ff801983541691151516179055565b61257157005b6001909101905f905b6004821061258457005b80518051906001600160401b0382116107e3576125a5826108188754613379565b602090601f83116001146125ea57926125db836001959460209487965f92610f7b5750508160011b915f199060031b1c19161790565b86555b0193019101909161257a565b90601f19831691865f52815f20925f5b81811061263b5750936020936001969387969383889510612623575b505050811b0186556125de565b01515f1960f88460031b161c19169055888080612616565b828401518555600190940193602093840193016125fa565b93929190601f198216908b5f52805f20915f5b8181106126a057509583600195969710612688575b505050811b018855612501565b01515f1960f88460031b161c191690558a808061267b565b8783015184558a965060019093019260209283019201612666565b60405162461bcd60e51b815260206004820152601e60248201527f4e6f207469656e6573207065726d69736f7320706172612065646974617200006044820152606490fd5b50856124a5565b60405162461bcd60e51b815260206004820152601260248201527150726f647563746f206e6f2065786973746560701b6044820152606490fd5b3461040d575f36600319011261040d576001546040516001600160a01b039091168152602090f35b3461040d575f36600319011261040d57335f52600760205260405f20608052608051541561311f57335f5260066020526127a9600160405f200154613379565b156130c4576080515415612cb5576080515f5260205f20545f5260046020526101b96127e1600960405f2001604051928380926133b1565b604051602081835180838601835e81016002815203019020604051602081845180838701835e810160028152030190206203f480420180421161093a5762093a8081106130bc578062093a80612838920690613540565b6203f47f19810190811161093a57905b600c81019082825410613082575b50505061286281613642565b90600a81015460409182516128778482613272565b600981526020810192601f198501368537600990815b6130345750506128e760018551809560208201946128c3846128b28860088b0161366a565b602d60f81b8152016009890161366a565b90602d60f81b82525180928583015e015f838201520301601f198101855284613272565b6020845161292a6001828480820196818d8051918291018a5e8301602d60f81b838201528a518092602183015e01015f838201520301601f198101835282613272565b8551928391518091835e810160088152030190209082516001600160401b0381116107e35761295d8161067b8554613379565b6020601f8211600114612fd4579080612989925f91612fc957508160011b915f199060031b1c19161790565b82555b6001820186516001600160401b0381116107e3576129ae81610b598454613379565b6020601f8211600114612f675790806129da925f91612f5c57508160011b915f199060031b1c19161790565b90555b6002820180546001600160a01b03191633908117909155426003840181905518600483015583516060939091612a138584613272565b60603684375f5b60805154811015612d1257612a318160805161346d565b50545f526004602052865f208751612a50816101b981600986016133b1565b602081519101208a5160208c012003612cdf57600881018054612a856001612a7a8660805161346d565b50015482101561358f565b612a9f6001612a968660805161346d565b50015484613858565b612ab96001612ab08760805161346d565b5001548261352d565b9260ff600a86015460081c1692600f84145f14612cc95760208a01612adf868251613520565b9052600f850290858204600f148615171561093a57612b2491612b0a8f6064908e0192048251613520565b90525b6001612b1b8960805161346d565b50015490613540565b90558a6101b9612b66612b398860805161346d565b5054966001612b4a8a60805161346d565b50015493805198612b5a8a61323b565b895251928380926133b1565b60208601528b85015289840152608083015260a08201526009860154600160401b8110156107e35760018101806009890155811015612cb557600987015f52600660205f2091020190805182556001820160208201518051906001600160401b0382116107e357612bdb8261067b8554613379565b602090601f8311600114612c495792612c148360a0946001999897946005975f926107425750508160011b915f199060031b1c19161790565b90555b8b81015160028501558a81015160038501556004840160ff60808301511660ff19825416179055015191015501612a1a565b90601f19831691845f52815f20925f5b818110612c9d575093600198979693600596938a938360a09810612c85575b505050811b019055612c17565b01515f1960f88460031b161c191690555f8080612c78565b92936020600181928786015181550195019301612c59565b634e487b7160e01b5f52603260045260245ffd5b612b2490612cd8868c51613520565b8b52612b0d565b875162461bcd60e51b815260206004820152600c60248201526b0a4aa8640dad2e6dac2e8c6d60a31b6044820152606490fd5b50909350612dd58688936064612d6860ff8351948b6008612d48612d3c60208901998a5190613520565b92880192835190613520565b9b8c9288516005830155895160068301555160078201550155168861352d565b04612d738188613540565b6001548a516323b872dd60e01b81523360048201526001600160a01b039182166024820152604481019390935291947f000000000000000000000000000000000000000000000000000000000000000090921691602090869081906064820190565b03815f865af1918215612f5257612e3095602093612f37575b5060028701548b516323b872dd60e01b81523360048201526001600160a01b0390911660248201526044810192909252909485919082905f9082906064820190565b03925af1928315612f2d57612e4e93612f10575b5051905190613520565b612e5d600b8301918254613520565b9055600a612e6d81830154613565565b910155608051545f6080515580612ecf575b507f231e3fefc3e60ae0a0782aca35538a27ebe28c7d1eefff3f650624f134885a8e916020612eca928651918183925191829101835e81015f81520390209451918291339583613573565b0390a3005b600181901b906001600160ff1b0381160361093a576080515f5260205f205f5b828110612efd575050612e7f565b5f82820181815560010155600201612eef565b612f289060203d6020116120f7576120ea8183613272565b612e44565b88513d5f823e3d90fd5b612f4d90843d86116120f7576120ea8183613272565b612dee565b8a513d5f823e3d90fd5b90508901518a610b79565b601f19821690835f52805f20915f5b8b828210612fb15750509083600194939210612f99575b5050811b0190556129dd565b8a01515f1960f88460031b161c191690558980612f8d565b60018495602093958493015181550194019201612f76565b905085015189610b79565b601f19821690845f52805f20915f5b81811061301c57509083600194939210613004575b5050811b01825561298c565b8601515f1960f88460031b161c191690558880612ff8565b9192602060018192868b015181550194019201612fe3565b600a8106603001908160301161093a575f19830183811161093a5784511115612cb557600a9160f81b6001600160f81b0319165f1a848401601f01530490801561093a575f1901908161288d565b600b810180545f92600e91630ee6b280116130ae5701805460ff191660011790555b5555828080612856565b01805460ff191690556130a4565b505f90612848565b60405162461bcd60e51b815260206004820152602d60248201527f446562652072656769737472617220737573206461746f7320636f6d6f20636c60448201526c69656e7465207072696d65726f60981b6064820152608490fd5b60405162461bcd60e51b815260206004820152600d60248201526c4361727269746f20766163696f60981b6044820152606490fd5b3461040d575f36600319011261040d57335f52600760205260405f2080549061317c82613456565b9161318a6040519384613272565b8083526020830180925f5260205f205f915b8383106131f3578486604051918291602083019060208452518091526040830191905f5b8181106131ce575050500390f35b82518051855260209081015181860152869550604090940193909201916001016131c0565b6002602060019260405161320681613220565b85548152848601548382015281520192019201919061319c565b604081019081106001600160401b038211176107e357604052565b60c081019081106001600160401b038211176107e357604052565b61014081019081106001600160401b038211176107e357604052565b90601f801991011681019081106001600160401b038211176107e357604052565b81601f8201121561040d578035906001600160401b0382116107e357604051926132c7601f8401601f191660200185613272565b8284526020838301011161040d57815f926020809301838601378301015290565b9080601f8301121561040d5760405191613303608084613272565b60808101908383831161040d5781905b83821061332257505050505090565b81356001600160401b03811161040d576020916133428784938701613293565b815201910190613313565b604090600319011261040d576004359060243590565b600435906001600160a01b038216820361040d57565b90600182811c921680156133a7575b602083101461339357565b634e487b7160e01b5f52602260045260245ffd5b91607f1691613388565b5f92918154916133c083613379565b808352926001811690811561341557506001146133dc57505050565b5f9081526020812093945091925b8383106133fb575060209250010190565b6001816020929493945483858701015201910191906133ea565b915050602093945060ff929192191683830152151560051b010190565b805180835260209291819084018484015e5f828201840152601f01601f1916010190565b6001600160401b0381116107e35760051b60200190565b8054821015612cb5575f5260205f209060011b01905f90565b5f5b82811061349457505050565b5f82820155600101613488565b90601f81116134ae575050565b600381116134ba575050565b6134d1915f52601f60205f20910160051c90613486565b565b91601f82116134e157505050565b8082116134ed57505050565b6134d1925f5260205f20916020601f830160051c9210613518575b601f82910160051c039101613486565b5f9150613508565b9190820180921161093a57565b8181029291811591840414171561093a57565b9190820391821161093a57565b9081602091031261040d5751801515810361040d5790565b5f19811461093a5760010190565b92919061358a602091604086526040860190613432565b930152565b1561359657565b60405162461bcd60e51b815260206004820152601260248201527153746f636b20696e737566696369656e746560701b6044820152606490fd5b156135d757565b60405162461bcd60e51b815260206004820152603b60248201527f536f6c6f20656c2061646d696e6973747261646f7220284375656e746120302960448201527f207075656465207265616c697a6172206573746120616363696f6e00000000006064820152608490fd5b600d810154421061366557600e015460ff1660011461366057600a90565b600790565b505f90565b5f929181549161367983613379565b92600181169081156136c1575060011461369257505050565b90919293505f5260205f205f905b8382106136ad5750500190565b6001816020925484860152019101906136a0565b60ff191683525050811515909102019150565b9190915f5b815481101561371c57836136ed828461346d565b5054146136fc576001016136d9565b61371892935061370e9060019261346d565b5001918254613520565b9055565b50604051919261372b83613220565b8252602082019283528054600160401b8110156107e3576137519160018201815561346d565b9290926137645760019151835551910155565b634e487b7160e01b5f525f60045260245ffd5b90915f5b8254811015613852578361378f828561346d565b50541461379e5760010161377b565b9192508060016137ae848661346d565b50015411613838575081545f19810190811161093a576137d16137d9918461346d565b50918361346d565b91909161376457808203613824575b505080548015613810575f190190613800828261346d565b613764576001815f809355015555565b634e487b7160e01b5f52603160045260245ffd5b600181819254845501549101555f806137e8565b916138486137189260019261346d565b5001918254613540565b50505050565b906019811061386957506007015490565b600a11613877576006015490565b600501549056fef824de79e6853b3a64ddcfcbaeb2acb9ce06144a93b093f2b53aaeda46aebb15a26469706673582212201f607d847234b362f3fddc2d4eda65266087a542062a5ef90b7c567d0d7bcacd64736f6c63430008210033","linkReferences":{}},"methodIdentifiers":{"addProduct(string,string,string[4],uint256,uint256,uint8)":"bb5aea49","addToCart(uint256,uint256)":"3ab9bbb6","buyStock(uint256,uint256)":"b9303dbd","cbtoken()":"b613972a","checkout()":"06099d69","clearCart()":"574fde97","clients(address)":"61eed2a9","companies(string)":"7a3d0277","getCartItems()":"05e410dd","getInvoice(string)":"f906a440","getProductPhotos(uint256)":"aaa11c4f","nextProductId()":"4de91a63","owner()":"8da5cb5b","payVipSubscription(string)":"62c94c78","platformVault()":"20f094f8","products(uint256)":"7acc0b20","registerClient(string,string,string,string,string)":"93db3d38","registerCompany(string,string,address,string,string,string,string,string)":"b9d29998","removeFromCart(uint256,uint256)":"f6ec855a","updateCompanyWallet(string,address)":"83eac6dc","updateProduct(uint256,string,string[4],uint256,uint8,bool)":"25964add","walletToRuc(address)":"ea064904"},"id":16}