{"abi":[{"type":"constructor","inputs":[{"name":"_cbtoken","type":"address","internalType":"address"},{"name":"_platformVault","type":"address","internalType":"address"}],"stateMutability":"nonpayable"},{"type":"function","name":"addProduct","inputs":[{"name":"_ruc","type":"string","internalType":"string"},{"name":"_name","type":"string","internalType":"string"},{"name":"_photos","type":"string[4]","internalType":"string[4]"},{"name":"_price_1","type":"uint256","internalType":"uint256"},{"name":"_stock","type":"uint256","internalType":"uint256"},{"name":"_iva","type":"uint8","internalType":"uint8"}],"outputs":[],"stateMutability":"nonpayable"},{"type":"function","name":"addToCart","inputs":[{"name":"_productId","type":"uint256","internalType":"uint256"},{"name":"_quantity","type":"uint256","internalType":"uint256"}],"outputs":[],"stateMutability":"nonpayable"},{"type":"function","name":"buyStock","inputs":[{"name":"_productId","type":"uint256","internalType":"uint256"},{"name":"_amount","type":"uint256","internalType":"uint256"}],"outputs":[],"stateMutability":"nonpayable"},{"type":"function","name":"cbtoken","inputs":[],"outputs":[{"name":"","type":"address","internalType":"contract IERC20"}],"stateMutability":"view"},{"type":"function","name":"checkout","inputs":[],"outputs":[],"stateMutability":"nonpayable"},{"type":"function","name":"clients","inputs":[{"name":"","type":"address","internalType":"address"}],"outputs":[{"name":"name","type":"string","internalType":"string"},{"name":"idNumber","type":"string","internalType":"string"},{"name":"wallet","type":"address","internalType":"address"},{"name":"email","type":"string","internalType":"string"},{"name":"phone","type":"string","internalType":"string"},{"name":"streets","type":"string","internalType":"string"}],"stateMutability":"view"},{"type":"function","name":"companies","inputs":[{"name":"","type":"string","internalType":"string"}],"outputs":[{"name":"name","type":"string","internalType":"string"},{"name":"ruc","type":"string","internalType":"string"},{"name":"wallet","type":"address","internalType":"address"},{"name":"isActive","type":"bool","internalType":"bool"},{"name":"streets","type":"string","internalType":"string"},{"name":"phone","type":"string","internalType":"string"},{"name":"description","type":"string","internalType":"string"},{"name":"email","type":"string","internalType":"string"},{"name":"logoUrl","type":"string","internalType":"string"},{"name":"establishmentCode","type":"string","internalType":"string"},{"name":"emissionPointCode","type":"string","internalType":"string"},{"name":"nextInvoiceNumber","type":"uint256","internalType":"uint256"},{"name":"currentWeekSales","type":"uint256","internalType":"uint256"},{"name":"lastResetTimestamp","type":"uint256","internalType":"uint256"},{"name":"vipUntil","type":"uint256","internalType":"uint256"},{"name":"lastWeekStatus","type":"uint8","internalType":"uint8"}],"stateMutability":"view"},{"type":"function","name":"getCartItems","inputs":[],"outputs":[{"name":"","type":"tuple[]","internalType":"struct CartLib.CartItem[]","components":[{"name":"productId","type":"uint256","internalType":"uint256"},{"name":"quantity","type":"uint256","internalType":"uint256"}]}],"stateMutability":"view"},{"type":"function","name":"getInvoice","inputs":[{"name":"key","type":"string","internalType":"string"}],"outputs":[{"name":"","type":"tuple","internalType":"struct InvoiceLib.Invoice","components":[{"name":"invoiceId","type":"string","internalType":"string"},{"name":"companyRuc","type":"string","internalType":"string"},{"name":"customerWallet","type":"address","internalType":"address"},{"name":"timestamp","type":"uint256","internalType":"uint256"},{"name":"txHash","type":"bytes32","internalType":"bytes32"},{"name":"subtotal0","type":"uint256","internalType":"uint256"},{"name":"subtotal15","type":"uint256","internalType":"uint256"},{"name":"ivaAmount","type":"uint256","internalType":"uint256"},{"name":"totalAmount","type":"uint256","internalType":"uint256"},{"name":"details","type":"tuple[]","internalType":"struct InvoiceLib.InvoiceItem[]","components":[{"name":"productId","type":"uint256","internalType":"uint256"},{"name":"description","type":"string","internalType":"string"},{"name":"quantity","type":"uint256","internalType":"uint256"},{"name":"unitPrice","type":"uint256","internalType":"uint256"},{"name":"ivaPercentage","type":"uint8","internalType":"uint8"},{"name":"totalItem","type":"uint256","internalType":"uint256"}]}]}],"stateMutability":"view"},{"type":"function","name":"nextProductId","inputs":[],"outputs":[{"name":"","type":"uint256","internalType":"uint256"}],"stateMutability":"view"},{"type":"function","name":"owner","inputs":[],"outputs":[{"name":"","type":"address","internalType":"address"}],"stateMutability":"view"},{"type":"function","name":"payVipSubscription","inputs":[{"name":"_ruc","type":"string","internalType":"string"}],"outputs":[],"stateMutability":"nonpayable"},{"type":"function","name":"platformVault","inputs":[],"outputs":[{"name":"","type":"address","internalType":"address"}],"stateMutability":"view"},{"type":"function","name":"products","inputs":[{"name":"","type":"uint256","internalType":"uint256"}],"outputs":[{"name":"name","type":"string","internalType":"string"},{"name":"price_1","type":"uint256","internalType":"uint256"},{"name":"price_2","type":"uint256","internalType":"uint256"},{"name":"price_3","type":"uint256","internalType":"uint256"},{"name":"stock","type":"uint256","internalType":"uint256"},{"name":"companyRuc","type":"string","internalType":"string"},{"name":"isActive","type":"bool","internalType":"bool"},{"name":"iva","type":"uint8","internalType":"uint8"}],"stateMutability":"view"},{"type":"function","name":"registerClient","inputs":[{"name":"_name","type":"string","internalType":"string"},{"name":"_idNumber","type":"string","internalType":"string"},{"name":"_email","type":"string","internalType":"string"},{"name":"_phone","type":"string","internalType":"string"},{"name":"_streets","type":"string","internalType":"string"}],"outputs":[],"stateMutability":"nonpayable"},{"type":"function","name":"registerCompany","inputs":[{"name":"_ruc","type":"string","internalType":"string"},{"name":"_name","type":"string","internalType":"string"},{"name":"_wallet","type":"address","internalType":"address"},{"name":"_streets","type":"string","internalType":"string"},{"name":"_phone","type":"string","internalType":"string"},{"name":"_description","type":"string","internalType":"string"},{"name":"_email","type":"string","internalType":"string"},{"name":"_logoUrl","type":"string","internalType":"string"}],"outputs":[],"stateMutability":"nonpayable"},{"type":"function","name":"walletToRuc","inputs":[{"name":"","type":"address","internalType":"address"}],"outputs":[{"name":"","type":"string","internalType":"string"}],"stateMutability":"view"},{"type":"event","name":"CompanyRegistered","inputs":[{"name":"ruc","type":"string","indexed":false,"internalType":"string"},{"name":"name","type":"string","indexed":false,"internalType":"string"},{"name":"wallet","type":"address","indexed":false,"internalType":"address"}],"anonymous":false},{"type":"event","name":"ProductAdded","inputs":[{"name":"id","type":"uint256","indexed":false,"internalType":"uint256"},{"name":"name","type":"string","indexed":false,"internalType":"string"},{"name":"companyRuc","type":"string","indexed":false,"internalType":"string"}],"anonymous":false},{"type":"event","name":"PurchaseCompleted","inputs":[{"name":"buyer","type":"address","indexed":true,"internalType":"address"},{"name":"companyRuc","type":"string","indexed":true,"internalType":"string"},{"name":"invoiceId","type":"string","indexed":false,"internalType":"string"},{"name":"total","type":"uint256","indexed":false,"internalType":"uint256"}],"anonymous":false},{"type":"event","name":"StockUpdated","inputs":[{"name":"productId","type":"uint256","indexed":false,"internalType":"uint256"},{"name":"newStock","type":"uint256","indexed":false,"internalType":"uint256"}],"anonymous":false},{"type":"event","name":"VipStatusPaid","inputs":[{"name":"ruc","type":"string","indexed":false,"internalType":"string"},{"name":"until","type":"uint256","indexed":false,"internalType":"uint256"}],"anonymous":false}],"bytecode":{"object":"0x60a0346100ae57601f612f8c38819003918201601f19168301916001600160401b038311848410176100b25780849260409485528339810103126100ae57610052602061004b836100c6565b92016100c6565b600160058190555f80546001600160a01b031990811633179091556001600160a01b0393841660805281541692909116919091179055604051612eb190816100db82396080518181816113db01528181611bd201526125860152f35b5f80fd5b634e487b7160e01b5f52604160045260245ffd5b51906001600160a01b03821682036100ae5756fe60806040526004361015610011575f80fd5b5f3560e01c806305e410dd1461292d57806306099d6914611f5457806320f094f814611f2c5780633ab9bbb614611dd35780634de91a6314611db657806361eed2a914611cdc57806362c94c7814611b635780637a3d02771461199b5780637acc0b20146118f25780638da5cb5b146118cb57806393db3d381461140a578063b613972a146113c6578063b9303dbd14611295578063b9d299981461099a578063bb5aea4914610404578063ea064904146103b45763f906a440146100d4575f80fd5b346103b05760203660031901126103b0576004356001600160401b0381116103b057602061010781923690600401612b94565b606061012060405161011881612a93565b82815282858201525f60408201525f838201525f60808201525f60a08201525f60c08201525f60e08201525f6101008201520152604051928184925191829101835e810160088152030190206040519061017182612a93565b61017a81612ad0565b825261018860018201612ad0565b916020810192835260018060a01b036002830154169160408201928352600381015460608301908152600482015460808401908152600583015460a0850190815260068401549160c0860192835260078501549360e0870194855260096008870154966101008901978852019889549761020189612be9565b9861020f6040519a8b612aaf565b808a5260208a019b5f5260205f209b5f905b82821061034f575061014060208d8d8d8d8d8d8d8d6102748e6102618f61012081019a8b526040519d8d8f9e928f938452519201526101608d0190612b70565b90518b8203601f190160408d0152612b70565b97516001600160a01b031660608a01525160808901525160a08801525160c08701525160e0860152516101008501525161012084015251828203601f190161014084015280518083526020600582901b8401810193928101925f918101905b8383106102e05786860387f35b919395509193602080600192601f198582030186528851908151815260a0806103168585015160c08786015260c0850190612b70565b93604081015160408501526060810151606085015260ff60808201511660808501520151910152970193019301909286959492936102d3565b600660208f9260019360056040519161036783612a78565b80548352610376878201612ad0565b85840152600281015460408401526003810154606084015260ff6004820154166080840152015460a08201528152019e019101909c610221565b5f80fd5b346103b05760203660031901126103b0576001600160a01b036103d5612a0f565b165f5260036020526104006103ec60405f20612ad0565b604051918291602083526020830190612b70565b0390f35b346103b05760c03660031901126103b0576004356001600160401b0381116103b057610434903690600401612b94565b6024356001600160401b0381116103b057610453903690600401612b94565b6044356001600160401b0381116103b057366023820112156103b05760405190608082018281106001600160401b0382111761077057604052819060848101903682116103b05780600401925b82841061096b57505050506064359260a4359160ff83168093036103b0575f546001600160a01b031633148015610942575b156108e657600554926104e484612cf6565b600555605f8602861590878104605f148217156108d257605588029188830460551417156108d2576040519161012083018381106001600160401b03821117610770576040528783526020830194855260408301988952606460608401920482526064608084019104815260a0830191608435835260c0840199878b5260e0850196600188526101008601968752895f52600460205260405f2095518051906001600160401b038211610770576105a58261059f8a54612a25565b8a612c64565b602090601f831160011461086f576105d492915f9183610864575b50508160011b915f199060031b1c19161790565b86555b5160018601905f905b60048210610784575050505160058501555160068401555160078301555160088201556009810196519687516001600160401b0381116107705761062e816106288454612a25565b84612c64565b6020601f82116001146106e35791610687826106d39897969593600a957fb0b1b5b61bc0dbb800dfdecd756ac304fe33d3a63c2ac5dc419452555c99a8299d5f926106d85750508160011b915f199060031b1c19161790565b90555b01915115159060ff61ff008454925160081b1692169061ffff1916171790556106c56040519485948552606060208601526060850190612b70565b908382036040850152612b70565b0390a1005b015190508d806105c0565b601f19821699835f52815f209a5f5b8181106107585750927fb0b1b5b61bc0dbb800dfdecd756ac304fe33d3a63c2ac5dc419452555c99a8299b600a9593600193836106d39c9b9a999710610740575b505050811b01905561068a565b01515f1960f88460031b161c191690558c8080610733565b838301518d556001909c019b602093840193016106f2565b634e487b7160e01b5f52604160045260245ffd5b80518051906001600160401b038211610770576107ab826107a58754612a25565b87612c64565b602090601f83116001146107fb57926107e1836001959460209487965f926107f05750508160011b915f199060031b1c19161790565b86555b019301910190916105e0565b015190505f806105c0565b90601f19831691865f52815f20925f5b81811061084c5750936020936001969387969383889510610834575b505050811b0186556107e4565b01515f1960f88460031b161c191690555f8080610827565b9293602060018192878601518155019501930161080b565b015190508f806105c0565b90601f19831691895f52815f20925f5b8181106108ba57509084600195949392106108a2575b505050811b0186556105d7565b01515f1960f88460031b161c191690558e8080610895565b9293602060018192878601518155019501930161087f565b634e487b7160e01b5f52601160045260245ffd5b60405162461bcd60e51b815260206004820152602e60248201527f4e6f207469656e6573207065726d69736f7320706172612067657374696f6e6160448201526d72206573746120656d707265736160901b6064820152608490fd5b50335f52600360205261095760405f20612ad0565b6020815191012082516020840120146104d2565b83356001600160401b0381116103b05760209161098f839260043691870101612b94565b8152019301926104a0565b346103b0576101003660031901126103b0576004356001600160401b0381116103b0576109cb903690600401612b94565b6024356001600160401b0381116103b0576109ea903690600401612b94565b6044356001600160a01b03811691908290036103b0576064356001600160401b0381116103b057610a1f903690600401612b94565b6084356001600160401b0381116103b057610a3e903690600401612b94565b60a4356001600160401b0381116103b057610a5d903690600401612b94565b60c4356001600160401b0381116103b057610a7c903690600401612b94565b9060e4356001600160401b0381116103b057610a9c903690600401612b94565b5f549093906001600160a01b0316330361122a5787610ad760016040516020818186519601958087835e810160028152030190200154612a25565b6111f157602060405180928b518091835e81016002815203019020946001860189516001600160401b03811161077057610b15816106288454612a25565b6020601f821160011461118d579080610b42925f91611182575b508160011b915f199060031b1c19161790565b90555b86516001600160401b03811161077057610b6981610b638954612a25565b89612c64565b6020601f8211600114611120579080610b95925f9161111557508160011b915f199060031b1c19161790565b86555b60028601805460ff60a01b198a166001600160a81b031990911617600160a01b179055805160038701916001600160401b03821161077057610be482610bde8554612a25565b85612c64565b602090601f83116001146110b257610c1292915f91836110a75750508160011b915f199060031b1c19161790565b90555b805160048601916001600160401b03821161077057610c3882610bde8554612a25565b602090601f831160011461104457610c6692915f91836110395750508160011b915f199060031b1c19161790565b90555b805160058501916001600160401b03821161077057610c8c82610bde8554612a25565b602090601f8311600114610fd657610cba92915f9183610fcb5750508160011b915f199060031b1c19161790565b90555b805160068401916001600160401b03821161077057610ce082610bde8554612a25565b602090601f8311600114610f6857610d0e92915f9183610f5d5750508160011b915f199060031b1c19161790565b90555b805160078301916001600160401b03821161077057610d3482610bde8554612a25565b602090601f8311600114610efa57610d6292915f9183610eef5750508160011b915f199060031b1c19161790565b90555b60088101610d7c610d768254612a25565b82612c34565b60066230303160e81b0180915560098201610d9a610d768254612a25565b556001600a820155600c42910155815f52600360205260405f2083516001600160401b03811161077057610dd2816106288454612a25565b6020601f8211600114610e645792610e409492610e2983610e4e947ff824de79e6853b3a64ddcfcbaeb2acb9ce06144a93b093f2b53aaeda46aebb1599975f91610e5957508160011b915f199060031b1c19161790565b90555b604051948594606086526060860190612b70565b908482036020860152612b70565b9060408301520390a1005b90508701518a610b2f565b601f19821690835f52805f20915f5b818110610ed75750837ff824de79e6853b3a64ddcfcbaeb2acb9ce06144a93b093f2b53aaeda46aebb15989693610e40989693610e4e9660019410610ebf575b5050811b019055610e2c565b8801515f1960f88460031b161c191690558980610eb3565b9192602060018192868c015181550194019201610e73565b0151905088806105c0565b90601f19831691845f52815f20925f5b818110610f455750908460019594939210610f2d575b505050811b019055610d65565b01515f1960f88460031b161c19169055878080610f20565b92936020600181928786015181550195019301610f0a565b0151905089806105c0565b90601f19831691845f52815f20925f5b818110610fb35750908460019594939210610f9b575b505050811b019055610d11565b01515f1960f88460031b161c19169055888080610f8e565b92936020600181928786015181550195019301610f78565b015190508a806105c0565b90601f19831691845f52815f20925f5b8181106110215750908460019594939210611009575b505050811b019055610cbd565b01515f1960f88460031b161c19169055898080610ffc565b92936020600181928786015181550195019301610fe6565b015190508b806105c0565b90601f19831691845f52815f20925f5b81811061108f5750908460019594939210611077575b505050811b019055610c69565b01515f1960f88460031b161c191690558a808061106a565b92936020600181928786015181550195019301611054565b015190508c806105c0565b90601f19831691845f52815f20925f5b8181106110fd57509084600195949392106110e5575b505050811b019055610c15565b01515f1960f88460031b161c191690558b80806110d8565b929360206001819287860151815501950193016110c2565b90508901518c610b2f565b601f19821690885f52805f20915f5b8b82821061116a5750509083600194939210611152575b5050811b018655610b98565b8a01515f1960f88460031b161c191690558b80611146565b6001849560209395849301518155019401920161112f565b90508c01518d610b2f565b5f8381528181209190601f198416908e5b8282106111d857505090836001949392106111c0575b5050811b019055610b45565b8d01515f1960f88460031b161c191690558c806111b4565b600184956020939584930151815501940192018e61119e565b60405162461bcd60e51b8152602060048201526011602482015270525543207961207265676973747261646f60781b6044820152606490fd5b60405162461bcd60e51b815260206004820152603b60248201527f536f6c6f20656c2061646d696e6973747261646f7220284375656e746120302960448201527f207075656465207265616c697a6172206573746120616363696f6e00000000006064820152608490fd5b346103b0576112a3366129f9565b90805f52600460205260405f209060ff600a830154161561138d576112ca60098301612ad0565b335f5260036020526112de60405f20612ad0565b60208151910120906020815191012003611335577febcfd4ce21b6aefd071d3e0f4bfa57e491b5308a1ffb5a3a8e4805e23f00b8d792611325600860409401918254612cc4565b80915582519182526020820152a1005b60405162461bcd60e51b815260206004820152602a60248201527f536f6c6f206c6120656d707265736120647565c3b161207075656465207265706044820152696f6e65722073746f636b60b01b6064820152608490fd5b60405162461bcd60e51b815260206004820152601160248201527050726f647563746f20696e61637469766f60781b6044820152606490fd5b346103b0575f3660031901126103b0576040517f00000000000000000000000000000000000000000000000000000000000000006001600160a01b03168152602090f35b346103b05760a03660031901126103b0576004356001600160401b0381116103b05761143a903690600401612b94565b6024356001600160401b0381116103b057611459903690600401612b94565b6044356001600160401b0381116103b057611478903690600401612b94565b916064356001600160401b0381116103b057611498903690600401612b94565b926084356001600160401b0381116103b0576114b8903690600401612b94565b92604051926114c684612a78565b8352602083019081526040830190338252606084019283526080840195865260a08401948552335f52600660205260405f2093518051906001600160401b0382116107705761151f826115198854612a25565b88612c64565b602090601f83116001146118685761154d92915f9183610f5d5750508160011b915f199060031b1c19161790565b84555b51805160018501916001600160401b0382116107705761157482610bde8554612a25565b602090601f8311600114611805576115a292915f9183610f5d5750508160011b915f199060031b1c19161790565b90555b516002830180546001600160a01b0319166001600160a01b039290921691909117905551805160038301916001600160401b038211610770576115ec82610bde8554612a25565b602090601f83116001146117a25761161a92915f91836117325750508160011b915f199060031b1c19161790565b90555b6004810192519283516001600160401b03811161077057611642816106288454612a25565b6020601f821160011461173d57908061167392600596975f926117325750508160011b915f199060031b1c19161790565b90555b0190519081516001600160401b03811161077057611698816106288454612a25565b602092601f82116001146116d6576116c7929382915f926116cb5750508160011b915f199060031b1c19161790565b9055005b0151905084806105c0565b601f19821693835f52805f20915f5b86811061171a5750836001959610611702575b505050811b019055005b01515f1960f88460031b161c191690558380806116f8565b919260206001819286850151815501940192016116e5565b0151905087806105c0565b601f19821695835f52815f20965f5b81811061178a5750916005969791846001959410611772575b505050811b019055611676565b01515f1960f88460031b161c19169055868080611765565b8383015189556001909801976020938401930161174c565b90601f19831691845f52815f20925f5b8181106117ed57509084600195949392106117d5575b505050811b01905561161d565b01515f1960f88460031b161c191690558680806117c8565b929360206001819287860151815501950193016117b2565b90601f19831691845f52815f20925f5b8181106118505750908460019594939210611838575b505050811b0190556115a5565b01515f1960f88460031b161c1916905588808061182b565b92936020600181928786015181550195019301611815565b90601f19831691875f52815f20925f5b8181106118b3575090846001959493921061189b575b505050811b018455611550565b01515f1960f88460031b161c1916905588808061188e565b92936020600181928786015181550195019301611878565b346103b0575f3660031901126103b0575f546040516001600160a01b039091168152602090f35b346103b05760203660031901126103b0576004355f52600460205261196160405f2061191d81612ad0565b9060ff61198360058301546006840154936007810154600882015490600a61194760098501612ad0565b93015496604051998a996101008b526101008b0190612b70565b9460208a015260408901526060880152608087015285820360a0870152612b70565b91818116151560c085015260081c1660e08301520390f35b346103b05760203660031901126103b0576004356001600160401b0381116103b0576119cb903690600401612b94565b604051818192516020819201835e8101600281520360200190206119ee81612ad0565b906119fb60018201612ad0565b90600281015460038201611a0e90612ad0565b91611a1b60048201612ad0565b92611a2860058301612ad0565b93611a3560068401612ad0565b611a4160078501612ad0565b611a4d60088601612ad0565b90611a5a60098701612ad0565b92600a87015498600b88015495600c89015497600d8a015499600e015460ff169a6040519e8f9e8f9161020083526102008301611a9691612b70565b8281036020840152611aa791612b70565b91600160a01b600190038116604083015260a01c60ff16151590606001528d8082039060800152611ad791612b70565b8c810360a08e0152611ae891612b70565b8b810360c08d0152611af991612b70565b8a810360e08c0152611b0a91612b70565b8981036101008b0152611b1c91612b70565b8881036101208a0152611b2e91612b70565b878103610140890152611b4091612b70565b946101608701526101808601526101a08501526101c08401526101e08301520390f35b346103b05760203660031901126103b0576004356001600160401b0381116103b057611b93903690600401612b94565b6001546040516323b872dd60e01b81523360048201526001600160a01b039182166024820152631dcd6500604482015290602090829060649082905f907f0000000000000000000000000000000000000000000000000000000000000000165af18015611cd157611ca4575b50620151804204600381018082116108d25760079006600603600681116108d257611c2991612cc4565b600181018091116108d257620151808102908082046201518014901517156108d2575f1981019081116108d2577f0b04bd09f84b94bc2cb320a6cfc05fd4e232db27d43fefaf033d3403217e48159181600d604051602081855180838801835e8101600281520301902001556106d360405192839283612d04565b611cc59060203d602011611cca575b611cbd8183612aaf565b810190612cde565b611bff565b503d611cb3565b6040513d5f823e3d90fd5b346103b05760203660031901126103b0576001600160a01b03611cfd612a0f565b165f526006602052611d7960405f20610400611d1882612ad0565b91611da8611d2860018301612ad0565b6002830154909290611d9a906001600160a01b0316611d4960038401612ad0565b611d87611d646005611d5d60048801612ad0565b9601612ad0565b966040519a8b9a60c08c5260c08c0190612b70565b908a820360208c0152612b70565b9160408901528782036060890152612b70565b908582036080870152612b70565b9083820360a0850152612b70565b346103b0575f3660031901126103b0576020600554604051908152f35b346103b057611de1366129f9565b815f52600460205260ff600a60405f2001541615611eee57815f52600460205280600860405f20015410611eb457815f526004602052611e26600960405f2001612ad0565b60208151910120335f526003602052611e4160405f20612ad0565b6020815191012014611e6457611e6291335f52600760205260405f20612dd8565b005b60405162461bcd60e51b815260206004820152602260248201527f5352492d4552524f523a204175746f636f6d707261206e6f207065726d697469604482015261646160f01b6064820152608490fd5b60405162461bcd60e51b815260206004820152601260248201527153746f636b20696e737566696369656e746560701b6044820152606490fd5b60405162461bcd60e51b815260206004820152601660248201527550726f647563746f206e6f20646973706f6e69626c6560501b6044820152606490fd5b346103b0575f3660031901126103b0576001546040516001600160a01b039091168152602090f35b346103b0575f3660031901126103b057335f52600760205260405f208054156128f857335f526006602052611f8f600160405f200154612a25565b1561289d5780541561241757805f5260205f20545f526004602052611fb9600960405f2001612ad0565b604051602081835180838601835e8101600281520301902091604051602081845180838701835e810160028152030190206203f48042018042116108d25762093a808110612895578062093a80612011920690612cd1565b6203f47f1981019081116108d257905b600c8101908282541061285b575b50505061203b83612d20565b915f5f915f90600a8701549660409788516120568a82612aaf565b600981526020810191601f198b01368437600990815b61280d5750506120c660018b51809460208201946120a2846120918860088c01612d48565b602d60f81b81520160098a01612d48565b90602d60f81b82525180928583015e015f838201520301601f198101845283612aaf565b60208a5161210760018284808201968a5180838d018a5e8301602d60f81b8382015289518092602183015e01015f838201520301601f198101835282612aaf565b8b51928391518091835e810160088152030190209181516001600160401b038111610770576121408161213a8654612a25565b86612c64565b6020601f82116001146127ad57908061216c925f916127a257508160011b915f199060031b1c19161790565b83555b6001830184516001600160401b03811161077057612191816106288454612a25565b6020601f821160011461273f5790806121bd925f9161273457508160011b915f199060031b1c19161790565b90559593955b6002830180546001600160a01b0319163390811790915542600385018190551860048401555f5b8854811015612504576121fd818a612c00565b5054600161220b838c612c00565b50015496815f5260046020528c5f209961222760098c01612ad0565b60208151910120885160208a01200361249a5760088b015498808a106124485790818f6122568e959486612db2565b9260ff600a6122658587612cb1565b97015460081c1694600f860361242b578661227f91612cc4565b9e600f8702878104600f14881517156108d257846122a76122c59460646122ad940490612cc4565b9f612cd1565b60088201558251976122be89612a78565b8852612ad0565b90602087019182528601918252606086019283526080860193845260a0860194855260098a0154600160401b81101561077057600181018060098d01558110156124175760098b015f52600660205f20910201955186556001860190518051906001600160401b0382116107705761234182610bde8554612a25565b602090601f83116001146123a95782600597959360019b9a9997959361237b935f926107f05750508160011b915f199060031b1c19161790565b90555b51600286015551600385015560ff6004850191511660ff1982541617905551910155019694966121ea565b90601f19831691845f52815f20925f5b8181106123ff57509260019b9a9997959392859260059a98968e95106123e7575b505050811b01905561237e565b01515f1960f88460031b161c191690555f80806123da565b929360206001819287860151815501950193016123b9565b634e487b7160e01b5f52603260045260245ffd5b9e61243a84929e9f8890612cc4565b9e6122c5926122ad91612cd1565b8e5162461bcd60e51b815260206004820152602560248201527f53746f636b20696e737566696369656e746520647572616e746520656c2070726044820152646f6365736f60d81b6064820152608490fd5b8d5162461bcd60e51b815260206004820152603a60248201527f536f6c6f2073652070726f636573616e2070726f647563746f73206465206c6160448201527f206d69736d6120656d707265736120706f7220666163747572610000000000006064820152608490fd5b5093919694909761254a60ff6064926125b79699600861252d826125288a8a612cc4565b612cc4565b9c8d92886005830155896006830155600782015501551689612cb1565b046125558189612cd1565b6001548b516323b872dd60e01b81523360048201526001600160a01b039182166024820152604481019390935291947f000000000000000000000000000000000000000000000000000000000000000090921691602090869081906064820190565b03815f865af191821561272a576126129560209361270f575b5060028701548c516323b872dd60e01b81523360048201526001600160a01b0390911660248201526044810192909252909485919082905f9082906064820190565b03925af19283156127055761262c936126e8575b50612cc4565b61263b600b8301918254612cc4565b9055600a61264b81830154612cf6565b9101558054905f8155816126ab575b50507f231e3fefc3e60ae0a0782aca35538a27ebe28c7d1eefff3f650624f134885a8e9160206126a6928651918183925191829101835e81015f81520390209451918291339583612d04565b0390a3005b600182901b916001600160ff1b038116036108d2575f5260205f205f5b8281106126d5575061265a565b5f828201818155600101556002016126c8565b6127009060203d602011611cca57611cbd8183612aaf565b612626565b89513d5f823e3d90fd5b61272590843d8611611cca57611cbd8183612aaf565b6125d0565b8b513d5f823e3d90fd5b90508701518e610b2f565b601f19821690835f52805f20915f5b81811061278a57509083600194939210612772575b5050811b0190559593956121c3565b8801515f1960f88460031b161c191690558d80612763565b9192602060018192868d01518155019401920161274e565b90508401518d610b2f565b601f19821690855f52805f20915f5b8181106127f5575090836001949392106127dd575b5050811b01835561216f565b8501515f1960f88460031b161c191690558c806127d1565b9192602060018192868a0151815501940192016127bc565b600a810660300190816030116108d2575f1983018381116108d2578451111561241757600a9160f81b6001600160f81b0319165f1a848401601f0153049080156108d2575f1901908161206c565b600b810180545f92600e91630ee6b280116128875701805460ff191660011790555b555583808061202f565b01805460ff1916905561287d565b505f90612021565b60405162461bcd60e51b815260206004820152602d60248201527f446562652072656769737472617220737573206461746f7320636f6d6f20636c60448201526c69656e7465207072696d65726f60981b6064820152608490fd5b60405162461bcd60e51b815260206004820152600d60248201526c4361727269746f20766163696f60981b6044820152606490fd5b346103b0575f3660031901126103b057335f52600760205260405f2080549061295582612be9565b916129636040519384612aaf565b8083526020830180925f5260205f205f915b8383106129cc578486604051918291602083019060208452518091526040830191905f5b8181106129a7575050500390f35b8251805185526020908101518186015286955060409094019390920191600101612999565b600260206001926040516129df81612a5d565b855481528486015483820152815201920192019190612975565b60409060031901126103b0576004359060243590565b600435906001600160a01b03821682036103b057565b90600182811c92168015612a53575b6020831014612a3f57565b634e487b7160e01b5f52602260045260245ffd5b91607f1691612a34565b604081019081106001600160401b0382111761077057604052565b60c081019081106001600160401b0382111761077057604052565b61014081019081106001600160401b0382111761077057604052565b90601f801991011681019081106001600160401b0382111761077057604052565b9060405191825f825492612ae384612a25565b8084529360018116908115612b4e5750600114612b0a575b50612b0892500383612aaf565b565b90505f9291925260205f20905f915b818310612b32575050906020612b08928201015f612afb565b6020919350806001915483858901015201910190918492612b19565b905060209250612b0894915060ff191682840152151560051b8201015f612afb565b805180835260209291819084018484015e5f828201840152601f01601f1916010190565b81601f820112156103b0578035906001600160401b0382116107705760405192612bc8601f8401601f191660200185612aaf565b828452602083830101116103b057815f926020809301838601378301015290565b6001600160401b0381116107705760051b60200190565b8054821015612417575f5260205f209060011b01905f90565b5f5b828110612c2757505050565b5f82820155600101612c1b565b90601f8111612c41575050565b60038111612c4d575050565b612b08915f52601f60205f20910160051c90612c19565b91601f8211612c7257505050565b808211612c7e57505050565b612b08925f5260205f20916020601f830160051c9210612ca9575b601f82910160051c039101612c19565b5f9150612c99565b818102929181159184041417156108d257565b919082018092116108d257565b919082039182116108d257565b908160209103126103b0575180151581036103b05790565b5f1981146108d25760010190565b929190612d1b602091604086526040860190612b70565b930152565b600d8101544210612d4357600e015460ff16600114612d3e57600a90565b600790565b505f90565b5f9291815491612d5783612a25565b9260018116908115612d9f5750600114612d7057505050565b90919293505f5260205f205f905b838210612d8b5750500190565b600181602092548486015201910190612d7e565b60ff191683525050811515909102019150565b9060198110612dc357506007015490565b600a11612dd1576006015490565b6005015490565b9190915f5b8154811015612e205783612df18284612c00565b505414612e0057600101612ddd565b612e1c929350612e1290600192612c00565b5001918254612cc4565b9055565b506040519192612e2f83612a5d565b8252602082019283528054600160401b81101561077057612e5591600182018155612c00565b929092612e685760019151835551910155565b634e487b7160e01b5f525f60045260245ffdfea2646970667358221220ba27d9345bac86fb3af60cf41aed690bd4ae827bbc04ea41a292cc5b13ded02d64736f6c63430008210033","linkReferences":{}},"methodIdentifiers":{"addProduct(string,string,string[4],uint256,uint256,uint8)":"bb5aea49","addToCart(uint256,uint256)":"3ab9bbb6","buyStock(uint256,uint256)":"b9303dbd","cbtoken()":"b613972a","checkout()":"06099d69","clients(address)":"61eed2a9","companies(string)":"7a3d0277","getCartItems()":"05e410dd","getInvoice(string)":"f906a440","nextProductId()":"4de91a63","owner()":"8da5cb5b","payVipSubscription(string)":"62c94c78","platformVault()":"20f094f8","products(uint256)":"7acc0b20","registerClient(string,string,string,string,string)":"93db3d38","registerCompany(string,string,address,string,string,string,string,string)":"b9d29998","walletToRuc(address)":"ea064904"},"id":19}